{
  "contractName": "Oracle",
  "abi": [
    {
      "inputs": [
        {
          "internalType": "string",
          "name": "reqURL_",
          "type": "string"
        },
        {
          "internalType": "string",
          "name": "path_",
          "type": "string"
        },
        {
          "internalType": "uint256",
          "name": "decimals_",
          "type": "uint256"
        }
      ],
      "stateMutability": "nonpayable",
      "type": "constructor"
    },
    {
      "anonymous": false,
      "inputs": [
        {
          "indexed": true,
          "internalType": "bytes32",
          "name": "id",
          "type": "bytes32"
        }
      ],
      "name": "ChainlinkCancelled",
      "type": "event"
    },
    {
      "anonymous": false,
      "inputs": [
        {
          "indexed": true,
          "internalType": "bytes32",
          "name": "id",
          "type": "bytes32"
        }
      ],
      "name": "ChainlinkFulfilled",
      "type": "event"
    },
    {
      "anonymous": false,
      "inputs": [
        {
          "indexed": true,
          "internalType": "bytes32",
          "name": "id",
          "type": "bytes32"
        }
      ],
      "name": "ChainlinkRequested",
      "type": "event"
    },
    {
      "anonymous": false,
      "inputs": [
        {
          "indexed": true,
          "internalType": "address",
          "name": "from",
          "type": "address"
        },
        {
          "indexed": true,
          "internalType": "address",
          "name": "to",
          "type": "address"
        }
      ],
      "name": "OwnershipTransferRequested",
      "type": "event"
    },
    {
      "anonymous": false,
      "inputs": [
        {
          "indexed": true,
          "internalType": "address",
          "name": "from",
          "type": "address"
        },
        {
          "indexed": true,
          "internalType": "address",
          "name": "to",
          "type": "address"
        }
      ],
      "name": "OwnershipTransferred",
      "type": "event"
    },
    {
      "inputs": [],
      "name": "acceptOwnership",
      "outputs": [],
      "stateMutability": "nonpayable",
      "type": "function"
    },
    {
      "inputs": [],
      "name": "owner",
      "outputs": [
        {
          "internalType": "address",
          "name": "",
          "type": "address"
        }
      ],
      "stateMutability": "view",
      "type": "function"
    },
    {
      "inputs": [
        {
          "internalType": "address",
          "name": "to",
          "type": "address"
        }
      ],
      "name": "transferOwnership",
      "outputs": [],
      "stateMutability": "nonpayable",
      "type": "function"
    },
    {
      "inputs": [],
      "name": "requestRate",
      "outputs": [
        {
          "internalType": "bytes32",
          "name": "requestId",
          "type": "bytes32"
        }
      ],
      "stateMutability": "nonpayable",
      "type": "function"
    },
    {
      "inputs": [
        {
          "internalType": "bytes32",
          "name": "requestId",
          "type": "bytes32"
        },
        {
          "internalType": "uint256",
          "name": "rate_",
          "type": "uint256"
        }
      ],
      "name": "fulfill",
      "outputs": [],
      "stateMutability": "nonpayable",
      "type": "function"
    },
    {
      "inputs": [],
      "name": "rate",
      "outputs": [
        {
          "internalType": "uint256",
          "name": "",
          "type": "uint256"
        }
      ],
      "stateMutability": "view",
      "type": "function"
    },
    {
      "inputs": [],
      "name": "path",
      "outputs": [
        {
          "internalType": "string",
          "name": "",
          "type": "string"
        }
      ],
      "stateMutability": "view",
      "type": "function"
    },
    {
      "inputs": [],
      "name": "reqURL",
      "outputs": [
        {
          "internalType": "string",
          "name": "",
          "type": "string"
        }
      ],
      "stateMutability": "view",
      "type": "function"
    },
    {
      "inputs": [],
      "name": "decimals",
      "outputs": [
        {
          "internalType": "uint256",
          "name": "",
          "type": "uint256"
        }
      ],
      "stateMutability": "view",
      "type": "function"
    }
  ],
  "bytecode": "0x608060405260016004553480156200001657600080fd5b50604051620029123803806200291283398181016040528101906200003c91906200051a565b338060008073ffffffffffffffffffffffffffffffffffffffff168273ffffffffffffffffffffffffffffffffffffffff161415620000b2576040517f08c379a0000000000000000000000000000000000000000000000000000000008152600401620000a99062000602565b60405180910390fd5b81600660006101000a81548173ffffffffffffffffffffffffffffffffffffffff021916908373ffffffffffffffffffffffffffffffffffffffff160217905550600073ffffffffffffffffffffffffffffffffffffffff168173ffffffffffffffffffffffffffffffffffffffff16146200013a5762000139816200021b60201b60201c565b5b505050620001627301be23585060835e02b77ef475b0cc51aa1e07096200034d60201b60201c565b6200018773f3fbb7f3391f62c8fe53f89b41dfc8159ee9653f6200039160201b60201c565b8060098190555082600c9080519060200190620001a6929190620003d5565b5081600d9080519060200190620001bf929190620003d5565b507f6361393833363663633733313439353762386330313263373266303561656562600a81905550600a670de0b6b3a76400006001620002009190620006ee565b6200020c9190620006b6565b600b8190555050505062000948565b3373ffffffffffffffffffffffffffffffffffffffff168173ffffffffffffffffffffffffffffffffffffffff1614156200028d576040517f08c379a0000000000000000000000000000000000000000000000000000000008152600401620002849062000624565b60405180910390fd5b80600760006101000a81548173ffffffffffffffffffffffffffffffffffffffff021916908373ffffffffffffffffffffffffffffffffffffffff1602179055508073ffffffffffffffffffffffffffffffffffffffff16600660009054906101000a900473ffffffffffffffffffffffffffffffffffffffff1673ffffffffffffffffffffffffffffffffffffffff167fed8889f560326eb138920d842192f0eb3dd22b4f139c87a2c57538e05bae127860405160405180910390a350565b80600260006101000a81548173ffffffffffffffffffffffffffffffffffffffff021916908373ffffffffffffffffffffffffffffffffffffffff16021790555050565b80600360006101000a81548173ffffffffffffffffffffffffffffffffffffffff021916908373ffffffffffffffffffffffffffffffffffffffff16021790555050565b828054620003e3906200078f565b90600052602060002090601f01602090048101928262000407576000855562000453565b82601f106200042257805160ff191683800117855562000453565b8280016001018555821562000453579182015b828111156200045257825182559160200191906001019062000435565b5b50905062000462919062000466565b5090565b5b808211156200048157600081600090555060010162000467565b5090565b60006200049c62000496846200066f565b62000646565b905082815260208101848484011115620004bb57620004ba620008bc565b5b620004c884828562000759565b509392505050565b600082601f830112620004e857620004e7620008b7565b5b8151620004fa84826020860162000485565b91505092915050565b60008151905062000514816200092e565b92915050565b600080600060608486031215620005365762000535620008c6565b5b600084015167ffffffffffffffff811115620005575762000556620008c1565b5b6200056586828701620004d0565b935050602084015167ffffffffffffffff811115620005895762000588620008c1565b5b6200059786828701620004d0565b9250506040620005aa8682870162000503565b9150509250925092565b6000620005c3601883620006a5565b9150620005d082620008dc565b602082019050919050565b6000620005ea601783620006a5565b9150620005f78262000905565b602082019050919050565b600060208201905081810360008301526200061d81620005b4565b9050919050565b600060208201905081810360008301526200063f81620005db565b9050919050565b60006200065262000665565b9050620006608282620007c5565b919050565b6000604051905090565b600067ffffffffffffffff8211156200068d576200068c62000888565b5b6200069882620008cb565b9050602081019050919050565b600082825260208201905092915050565b6000620006c3826200074f565b9150620006d0836200074f565b925082620006e357620006e26200082a565b5b828204905092915050565b6000620006fb826200074f565b915062000708836200074f565b9250817fffffffffffffffffffffffffffffffffffffffffffffffffffffffffffffffff0483118215151615620007445762000743620007fb565b5b828202905092915050565b6000819050919050565b60005b83811015620007795780820151818401526020810190506200075c565b8381111562000789576000848401525b50505050565b60006002820490506001821680620007a857607f821691505b60208210811415620007bf57620007be62000859565b5b50919050565b620007d082620008cb565b810181811067ffffffffffffffff82111715620007f257620007f162000888565b5b80604052505050565b7f4e487b7100000000000000000000000000000000000000000000000000000000600052601160045260246000fd5b7f4e487b7100000000000000000000000000000000000000000000000000000000600052601260045260246000fd5b7f4e487b7100000000000000000000000000000000000000000000000000000000600052602260045260246000fd5b7f4e487b7100000000000000000000000000000000000000000000000000000000600052604160045260246000fd5b600080fd5b600080fd5b600080fd5b600080fd5b6000601f19601f8301169050919050565b7f43616e6e6f7420736574206f776e657220746f207a65726f0000000000000000600082015250565b7f43616e6e6f74207472616e7366657220746f2073656c66000000000000000000600082015250565b62000939816200074f565b81146200094557600080fd5b50565b611fba80620009586000396000f3fe608060405234801561001057600080fd5b50600436106100935760003560e01c80634357855e116100665780634357855e146101105780636264cdc91461012c57806379ba50971461014a5780638da5cb5b14610154578063f2fde38b1461017257610093565b8063291ea566146100985780632c4e722e146100b6578063313ce567146100d45780633dc06356146100f2575b600080fd5b6100a061018e565b6040516100ad91906117d2565b60405180910390f35b6100be610220565b6040516100cb9190611894565b60405180910390f35b6100dc61022a565b6040516100e99190611894565b60405180910390f35b6100fa610234565b60405161010791906117d2565b60405180910390f35b61012a600480360381019061012591906114e2565b6102c6565b005b6101346103d7565b60405161014191906117b7565b60405180910390f35b610152610608565b005b61015c61079f565b60405161016991906116d9565b60405180910390f35b61018c60048036038101906101879190611488565b6107c9565b005b6060600c805461019d90611cc1565b80601f01602080910402602001604051908101604052809291908181526020018280546101c990611cc1565b80156102165780601f106101eb57610100808354040283529160200191610216565b820191906000526020600020905b8154815290600101906020018083116101f957829003601f168201915b5050505050905090565b6000600854905090565b6000600954905090565b6060600d805461024390611cc1565b80601f016020809104026020016040519081016040528092919081815260200182805461026f90611cc1565b80156102bc5780601f10610291576101008083540402835291602001916102bc565b820191906000526020600020905b81548152906001019060200180831161029f57829003601f168201915b5050505050905090565b816005600082815260200190815260200160002060009054906101000a900473ffffffffffffffffffffffffffffffffffffffff1673ffffffffffffffffffffffffffffffffffffffff163373ffffffffffffffffffffffffffffffffffffffff1614610368576040517f08c379a000000000000000000000000000000000000000000000000000000000815260040161035f90611874565b60405180910390fd5b6005600082815260200190815260200160002060006101000a81549073ffffffffffffffffffffffffffffffffffffffff0219169055807f7cc135e0cebb02c3480ae5d74d377283180a2601f8f644edf7987b009316c63a60405160405180910390a281600881905550505050565b6000806103ee600a5430634357855e60e01b6107dd565b90506104c46040518060400160405280600381526020017f6765740000000000000000000000000000000000000000000000000000000000815250600c805461043690611cc1565b80601f016020809104026020016040519081016040528092919081815260200182805461046290611cc1565b80156104af5780601f10610484576101008083540402835291602001916104af565b820191906000526020600020905b81548152906001019060200180831161049257829003601f168201915b50505050508361080e9092919063ffffffff16565b6105986040518060400160405280600481526020017f7061746800000000000000000000000000000000000000000000000000000000815250600d805461050a90611cc1565b80601f016020809104026020016040519081016040528092919081815260200182805461053690611cc1565b80156105835780601f1061055857610100808354040283529160200191610583565b820191906000526020600020905b81548152906001019060200180831161056657829003601f168201915b50505050508361080e9092919063ffffffff16565b6000600954600a6105a99190611990565b90506105f56040518060400160405280600581526020017f74696d657300000000000000000000000000000000000000000000000000000081525082846108419092919063ffffffff16565b61060182600b54610874565b9250505090565b600760009054906101000a900473ffffffffffffffffffffffffffffffffffffffff1673ffffffffffffffffffffffffffffffffffffffff163373ffffffffffffffffffffffffffffffffffffffff1614610698576040517f08c379a000000000000000000000000000000000000000000000000000000000815260040161068f906117f4565b60405180910390fd5b6000600660009054906101000a900473ffffffffffffffffffffffffffffffffffffffff16905033600660006101000a81548173ffffffffffffffffffffffffffffffffffffffff021916908373ffffffffffffffffffffffffffffffffffffffff1602179055506000600760006101000a81548173ffffffffffffffffffffffffffffffffffffffff021916908373ffffffffffffffffffffffffffffffffffffffff1602179055503373ffffffffffffffffffffffffffffffffffffffff168173ffffffffffffffffffffffffffffffffffffffff167f8be0079c531659141344cd1fd0a4f28419497f9722a3daafe3b4186f6b6457e060405160405180910390a350565b6000600660009054906101000a900473ffffffffffffffffffffffffffffffffffffffff16905090565b6107d16108ab565b6107da8161093d565b50565b6107e56113ad565b6107ed6113ad565b61080485858584610a6c909392919063ffffffff16565b9150509392505050565b610825828460800151610b1c90919063ffffffff16565b61083c818460800151610b1c90919063ffffffff16565b505050565b610858828460800151610b1c90919063ffffffff16565b61086f818460800151610b4190919063ffffffff16565b505050565b60006108a3600360009054906101000a900473ffffffffffffffffffffffffffffffffffffffff168484610bee565b905092915050565b600660009054906101000a900473ffffffffffffffffffffffffffffffffffffffff1673ffffffffffffffffffffffffffffffffffffffff163373ffffffffffffffffffffffffffffffffffffffff161461093b576040517f08c379a000000000000000000000000000000000000000000000000000000000815260040161093290611834565b60405180910390fd5b565b3373ffffffffffffffffffffffffffffffffffffffff168173ffffffffffffffffffffffffffffffffffffffff1614156109ac576040517f08c379a00000000000000000000000000000000000000000000000000000000081526004016109a390611854565b60405180910390fd5b80600760006101000a81548173ffffffffffffffffffffffffffffffffffffffff021916908373ffffffffffffffffffffffffffffffffffffffff1602179055508073ffffffffffffffffffffffffffffffffffffffff16600660009054906101000a900473ffffffffffffffffffffffffffffffffffffffff1673ffffffffffffffffffffffffffffffffffffffff167fed8889f560326eb138920d842192f0eb3dd22b4f139c87a2c57538e05bae127860405160405180910390a350565b610a746113ad565b610a848560800151610100610cba565b508385600001818152505082856020019073ffffffffffffffffffffffffffffffffffffffff16908173ffffffffffffffffffffffffffffffffffffffff16815250508185604001907bffffffffffffffffffffffffffffffffffffffffffffffffffffffff191690817bffffffffffffffffffffffffffffffffffffffffffffffffffffffff191681525050849050949350505050565b610b298260038351610d24565b610b3c8183610ea990919063ffffffff16565b505050565b7fffffffffffffffffffffffffffffffffffffffffffffffff0000000000000000811215610b7857610b738282610ecb565b610bea565b67ffffffffffffffff811315610b9757610b928282610f42565b610be9565b60008112610bb057610bab82600083610d24565b610be8565b610be7826001837fffffffffffffffffffffffffffffffffffffffffffffffffffffffffffffffff610be29190611b08565b610d24565b5b5b5b5050565b6000806004549050600181610c0391906118e7565b6004819055506000634042994660e01b60008087600001513089604001518760018c6080015160000151604051602401610c449897969594939291906116f4565b604051602081830303815290604052907bffffffffffffffffffffffffffffffffffffffffffffffffffffffff19166020820180517bffffffffffffffffffffffffffffffffffffffffffffffffffffffff83818316178352505050509050610caf86838684610f8e565b925050509392505050565b610cc261141a565b6000602083610cd19190611d21565b14610cfd57602082610ce39190611d21565b6020610cef9190611b9c565b82610cfa91906118e7565b91505b81836020018181525050604051808452600081528281016020016040525082905092915050565b60178167ffffffffffffffff1611610d5b57610d558160058460ff16901b60ff16178461113290919063ffffffff16565b50610ea4565b60ff8167ffffffffffffffff1611610db157610d8a601860058460ff16901b178461113290919063ffffffff16565b50610dab8167ffffffffffffffff166001856111529092919063ffffffff16565b50610ea3565b61ffff8167ffffffffffffffff1611610e0857610de1601960058460ff16901b178461113290919063ffffffff16565b50610e028167ffffffffffffffff166002856111529092919063ffffffff16565b50610ea2565b63ffffffff8167ffffffffffffffff1611610e6157610e3a601a60058460ff16901b178461113290919063ffffffff16565b50610e5b8167ffffffffffffffff166004856111529092919063ffffffff16565b50610ea1565b610e7e601b60058460ff16901b178461113290919063ffffffff16565b50610e9f8167ffffffffffffffff166008856111529092919063ffffffff16565b505b5b5b5b505050565b610eb161141a565b610ec383846000015151848551611174565b905092915050565b610ee960036005600660ff16901b178361113290919063ffffffff16565b50610f3e82827fffffffffffffffffffffffffffffffffffffffffffffffffffffffffffffffff610f1a9190611b08565b604051602001610f2a9190611894565b604051602081830303815290604052611263565b5050565b610f6060026005600660ff16901b178361113290919063ffffffff16565b50610f8a8282604051602001610f769190611894565b604051602081830303815290604052611263565b5050565b60003084604051602001610fa39291906116ad565b604051602081830303815290604052805190602001209050846005600083815260200190815260200160002060006101000a81548173ffffffffffffffffffffffffffffffffffffffff021916908373ffffffffffffffffffffffffffffffffffffffff160217905550807fb5e6e01e79f91267dc17b4e6314d5d4d03593d2ceee0fbb452b750bd70ea5af960405160405180910390a2600260009054906101000a900473ffffffffffffffffffffffffffffffffffffffff1673ffffffffffffffffffffffffffffffffffffffff16634000aea08685856040518463ffffffff1660e01b815260040161109993929190611779565b602060405180830381600087803b1580156110b357600080fd5b505af11580156110c7573d6000803e3d6000fd5b505050506040513d601f19601f820116820180604052508101906110eb91906114b5565b61112a576040517f08c379a000000000000000000000000000000000000000000000000000000000815260040161112190611814565b60405180910390fd5b949350505050565b61113a61141a565b61114a8384600001515184611288565b905092915050565b61115a61141a565b61116b8485600001515185856112df565b90509392505050565b61117c61141a565b825182111561118a57600080fd5b8460200151828561119b91906118e7565b11156111d0576111cf8560026111c0886020015188876111bb91906118e7565b61136d565b6111ca9190611aae565b611389565b5b6000808651805187602083010193508088870111156111ef5787860182525b60208701925050505b60208410611236578051825260208261121191906118e7565b915060208161122091906118e7565b905060208461122f9190611b9c565b93506111f8565b60006001856020036101000a03905080198251168184511681811785525050508692505050949350505050565b6112708260028351610d24565b6112838183610ea990919063ffffffff16565b505050565b61129061141a565b836020015183106112b6576112b584600286602001516112b09190611aae565b611389565b5b83518051602085830101848153818614156112d2576001820183525b5050508390509392505050565b6112e761141a565b846020015184836112f891906118e7565b11156113205761131f856002868561131091906118e7565b61131a9190611aae565b611389565b5b60006001836101006113329190611990565b61133c9190611b9c565b9050855183868201018583198251161781528151858801111561135f5784870182525b505085915050949350505050565b60008183111561137f57829050611383565b8190505b92915050565b60008260000151905061139c8383610cba565b506113a78382610ea9565b50505050565b6040518060a0016040528060008019168152602001600073ffffffffffffffffffffffffffffffffffffffff16815260200160007bffffffffffffffffffffffffffffffffffffffffffffffffffffffff191681526020016000815260200161141461141a565b81525090565b604051806040016040528060608152602001600081525090565b60008135905061144381611f28565b92915050565b60008151905061145881611f3f565b92915050565b60008135905061146d81611f56565b92915050565b60008135905061148281611f6d565b92915050565b60006020828403121561149e5761149d611ddf565b5b60006114ac84828501611434565b91505092915050565b6000602082840312156114cb576114ca611ddf565b5b60006114d984828501611449565b91505092915050565b600080604083850312156114f9576114f8611ddf565b5b60006115078582860161145e565b925050602061151885828601611473565b9150509250929050565b61152b81611bd0565b82525050565b61153a81611bee565b82525050565b61154981611bf8565b82525050565b600061155a826118af565b61156481856118c5565b9350611574818560208601611c8e565b61157d81611de4565b840191505092915050565b61159961159482611c58565b611cf3565b82525050565b60006115aa826118ba565b6115b481856118d6565b93506115c4818560208601611c8e565b6115cd81611de4565b840191505092915050565b60006115e56016836118d6565b91506115f082611e0f565b602082019050919050565b60006116086023836118d6565b915061161382611e38565b604082019050919050565b600061162b6016836118d6565b915061163682611e87565b602082019050919050565b600061164e6017836118d6565b915061165982611eb0565b602082019050919050565b60006116716028836118d6565b915061167c82611ed9565b604082019050919050565b61169081611c4e565b82525050565b6116a76116a282611c4e565b611d17565b82525050565b60006116b98285611588565b6014820191506116c98284611696565b6020820191508190509392505050565b60006020820190506116ee6000830184611522565b92915050565b60006101008201905061170a600083018b611522565b611717602083018a611687565b6117246040830189611531565b6117316060830188611522565b61173e6080830187611540565b61174b60a0830186611687565b61175860c0830185611687565b81810360e083015261176a818461154f565b90509998505050505050505050565b600060608201905061178e6000830186611522565b61179b6020830185611687565b81810360408301526117ad818461154f565b9050949350505050565b60006020820190506117cc6000830184611531565b92915050565b600060208201905081810360008301526117ec818461159f565b905092915050565b6000602082019050818103600083015261180d816115d8565b9050919050565b6000602082019050818103600083015261182d816115fb565b9050919050565b6000602082019050818103600083015261184d8161161e565b9050919050565b6000602082019050818103600083015261186d81611641565b9050919050565b6000602082019050818103600083015261188d81611664565b9050919050565b60006020820190506118a96000830184611687565b92915050565b600081519050919050565b600081519050919050565b600082825260208201905092915050565b600082825260208201905092915050565b60006118f282611c4e565b91506118fd83611c4e565b9250827fffffffffffffffffffffffffffffffffffffffffffffffffffffffffffffffff0382111561193257611931611d52565b5b828201905092915050565b6000808291508390505b60018511156119875780860481111561196357611962611d52565b5b60018516156119725780820291505b808102905061198085611e02565b9450611947565b94509492505050565b600061199b82611c4e565b91506119a683611c4e565b92506119d37fffffffffffffffffffffffffffffffffffffffffffffffffffffffffffffffff84846119db565b905092915050565b6000826119eb5760019050611aa7565b816119f95760009050611aa7565b8160018114611a0f5760028114611a1957611a48565b6001915050611aa7565b60ff841115611a2b57611a2a611d52565b5b8360020a915084821115611a4257611a41611d52565b5b50611aa7565b5060208310610133831016604e8410600b8410161715611a7d5782820a905083811115611a7857611a77611d52565b5b611aa7565b611a8a848484600161193d565b92509050818404811115611aa157611aa0611d52565b5b81810290505b9392505050565b6000611ab982611c4e565b9150611ac483611c4e565b9250817fffffffffffffffffffffffffffffffffffffffffffffffffffffffffffffffff0483118215151615611afd57611afc611d52565b5b828202905092915050565b6000611b1382611c24565b9150611b1e83611c24565b9250827f800000000000000000000000000000000000000000000000000000000000000001821260008412151615611b5957611b58611d52565b5b827f7fffffffffffffffffffffffffffffffffffffffffffffffffffffffffffffff018213600084121615611b9157611b90611d52565b5b828203905092915050565b6000611ba782611c4e565b9150611bb283611c4e565b925082821015611bc557611bc4611d52565b5b828203905092915050565b6000611bdb82611c2e565b9050919050565b60008115159050919050565b6000819050919050565b60007fffffffff0000000000000000000000000000000000000000000000000000000082169050919050565b6000819050919050565b600073ffffffffffffffffffffffffffffffffffffffff82169050919050565b6000819050919050565b6000611c6382611c6a565b9050919050565b6000611c7582611c7c565b9050919050565b6000611c8782611c2e565b9050919050565b60005b83811015611cac578082015181840152602081019050611c91565b83811115611cbb576000848401525b50505050565b60006002820490506001821680611cd957607f821691505b60208210811415611ced57611cec611db0565b5b50919050565b6000611cfe82611d05565b9050919050565b6000611d1082611df5565b9050919050565b6000819050919050565b6000611d2c82611c4e565b9150611d3783611c4e565b925082611d4757611d46611d81565b5b828206905092915050565b7f4e487b7100000000000000000000000000000000000000000000000000000000600052601160045260246000fd5b7f4e487b7100000000000000000000000000000000000000000000000000000000600052601260045260246000fd5b7f4e487b7100000000000000000000000000000000000000000000000000000000600052602260045260246000fd5b600080fd5b6000601f19601f8301169050919050565b60008160601b9050919050565b60008160011c9050919050565b7f4d7573742062652070726f706f736564206f776e657200000000000000000000600082015250565b7f756e61626c6520746f207472616e73666572416e6443616c6c20746f206f726160008201527f636c650000000000000000000000000000000000000000000000000000000000602082015250565b7f4f6e6c792063616c6c61626c65206279206f776e657200000000000000000000600082015250565b7f43616e6e6f74207472616e7366657220746f2073656c66000000000000000000600082015250565b7f536f75726365206d75737420626520746865206f7261636c65206f662074686560008201527f2072657175657374000000000000000000000000000000000000000000000000602082015250565b611f3181611bd0565b8114611f3c57600080fd5b50565b611f4881611be2565b8114611f5357600080fd5b50565b611f5f81611bee565b8114611f6a57600080fd5b50565b611f7681611c4e565b8114611f8157600080fd5b5056fea2646970667358221220ea78d21bdce4f0fad8d7c313313129c4862a06592d991c79554ebb76d4195f8864736f6c63430008070033",
  "immutableReferences": {},
  "source": "// SPDX-License-Identifier: MIT\r\npragma solidity ^0.8.7;\r\n\r\nimport '@chainlink/contracts/src/v0.8/ChainlinkClient.sol';\r\nimport '@chainlink/contracts/src/v0.8/ConfirmedOwner.sol';\r\n\r\n/**\r\n * Request testnet LINK and ETH here: https://faucets.chain.link/\r\n * Find information on LINK Token Contracts and get the latest ETH and LINK faucets here: https://docs.chain.link/docs/link-token-contracts/\r\n */\r\n\r\ncontract Oracle is ChainlinkClient, ConfirmedOwner {\r\n    using Chainlink for Chainlink.Request;\r\n\r\n    uint256 private _rate;\r\n\r\n    uint256 private _decimals;\r\n    bytes32 private _jobId;\r\n    uint256 private _fee;\r\n    string private _reqURL;\r\n    string private _path;\r\n\r\n    /**\r\n     * @notice Initialize the link token and target oracle\r\n     *\r\n     * Rinkeby Testnet details:\r\n     * Link Token: 0x01BE23585060835E02B77ef475b0Cc51aA1e0709\r\n     * Oracle: 0xf3FBB7f3391F62C8fe53f89B41dFC8159EE9653f (Chainlink DevRel)\r\n     * _jobId: ca98366cc7314957b8c012c72f05aeeb\r\n     *\r\n     */\r\n\r\n    constructor(string memory reqURL_, string memory path_, uint256 decimals_) ConfirmedOwner(msg.sender) {\r\n        setChainlinkToken(0x01BE23585060835E02B77ef475b0Cc51aA1e0709);\r\n        setChainlinkOracle(0xf3FBB7f3391F62C8fe53f89B41dFC8159EE9653f);\r\n\r\n        _decimals = decimals_;\r\n        _reqURL = reqURL_;\r\n        _path = path_;\r\n        _jobId = 'ca98366cc7314957b8c012c72f05aeeb';\r\n        _fee = (1 * LINK_DIVISIBILITY) / 10; // 0,1 * 10**18 (Varies by network and job)\r\n    }\r\n\r\n    function requestRate() public returns(bytes32 requestId) {\r\n        Chainlink.Request memory req = buildChainlinkRequest(_jobId, address(this), this.fulfill.selector);\r\n        req.add('get', _reqURL);\r\n\r\n        req.add('path', _path);\r\n\r\n        int256 timesAmount = int(10**_decimals);\r\n        req.addInt('times', timesAmount);\r\n\r\n        return sendChainlinkRequest(req, _fee);\r\n    }\r\n\r\n    function fulfill(bytes32 requestId, uint256 rate_) public recordChainlinkFulfillment(requestId) {\r\n        _rate = rate_;\r\n    }\r\n\r\n    function rate() public view returns(uint256) {\r\n        return _rate;\r\n    }\r\n\r\n    function path() public view returns(string memory) {\r\n        return _path;\r\n    }\r\n\r\n    function reqURL() public view returns(string memory) {\r\n        return _reqURL;\r\n    }\r\n\r\n    function decimals() public view returns(uint256) {\r\n        return _decimals;\r\n    }\r\n}\r\n",
  "sourcePath": "/Users/paulochade/BI/oracle/src/contracts/Oracle.sol",
  "compiler": {
    "name": "solc",
    "version": "0.8.7+commit.e28d00a7.Emscripten.clang"
  },
  "schemaVersion": "3.4.3",
  "updatedAt": "2022-09-12T16:36:40.722Z",
  "devdoc": {
    "kind": "dev",
    "methods": {},
    "version": 1
  },
  "userdoc": {
    "kind": "user",
    "methods": {
      "acceptOwnership()": {
        "notice": "Allows an ownership transfer to be completed by the recipient."
      },
      "constructor": {
        "notice": "Initialize the link token and target oracle Rinkeby Testnet details: Link Token: 0x01BE23585060835E02B77ef475b0Cc51aA1e0709 Oracle: 0xf3FBB7f3391F62C8fe53f89B41dFC8159EE9653f (Chainlink DevRel) _jobId: ca98366cc7314957b8c012c72f05aeeb"
      },
      "owner()": {
        "notice": "Get the current owner"
      },
      "transferOwnership(address)": {
        "notice": "Allows an owner to begin transferring ownership to a new address, pending."
      }
    },
    "notice": "Request testnet LINK and ETH here: https://faucets.chain.link/ Find information on LINK Token Contracts and get the latest ETH and LINK faucets here: https://docs.chain.link/docs/link-token-contracts/",
    "version": 1
  }
}